{
  from: "0xda80820ade1f39fea17acdb0531e2bb3bd29bf72",
  gas: 46350,
  gasPrice: 0,
  data: "0x0ebbbffc000000000000000000000000da80820ade1f39fea17acdb0531e2bb3bd29bf74",
  nonce: 1,
  to: "0xf18bd0f5a4f3944f3074453ce2015e8af12ed196",
  value: 0
}
buena
0xf888018082b50e94f18bd0f5a4f3944f3074453ce2015e8af12ed19680a40ebbbffc000000000000000000000000da80820ade1f39fea17acdb0531e2bb3bd29bf748526ec110ad7a0939fdcf7ee0e863a83e27bf546ca7b010b7e9541c28bc201862ebf3120546407a053753afeef85c8f2e26543d2533c051d50bf41f7d2469d2f6bde4ca87b0ec000
mala
0xf8498080808080801ca0c3d66c4450e139625835ea25a31e2b43becbaced646d4479b38cb5e69d599023a010618b5307a0f334401dc1d4b91471f157b712de48946a488dcbd7965e9eed41
otro
0xf8498080808080801ca0c3d66c4450e139625835ea25a31e2b43becbaced646d4479b38cb5e69d599023a010618b5307a0f334401dc1d4b91471f157b712de48946a488dcbd7965e9eed41
otro2 0xf8840180830927c094f18bd0f5a4f3944f3074453ce2015e8af12ed19680a40ebbbffc000000000000000000000000da80820ade1f39fea17acdb0531e2bb3bd29bf741ca0447485a44681b9d3faee0fbf6c8eb103bc21cdff55ff8824a3cf3b0e806486b4a02c5cd8393dbf1b747a0217bee90130f6a5054f72c3b1ddd30857b645e13cc223
ret
0xf8840180830927c094f18bd0f5a4f3944f3074453ce2015e8af12ed19680a40ebbbffc000000000000000000000000da80820ade1f39fea17acdb0531e2bb3bd29bf741ca0447485a44681b9d3faee0fbf6c8eb103bc21cdff55ff8824a3cf3b0e806486b4a02c5cd8393dbf1b747a0217bee90130f6a5054f72c3b1ddd30857b645e13cc223

// Lo que mandamos en geth attach, desde la accounts[1]
eth.signTransaction(
{ from: "0xda80820ade1f39fea17acdb0531e2bb3bd29bf72",
  to: "0xf18bd0f5a4f3944f3074453ce2015e8af12ed196",
  data: "0x0ebbbffc000000000000000000000000da80820ade1f39fea17acdb0531e2bb3bd29bf74",
  gas: 600000,
  gasPrice: 0,
  nonce: 1 })

// Al ejecutarlo en la consola sale esto
> eth.signTransaction(
... { from: "0xda80820ade1f39fea17acdb0531e2bb3bd29bf72",
......   to: "0xf18bd0f5a4f3944f3074453ce2015e8af12ed196",
......   data: "0x0ebbbffc000000000000000000000000da80820ade1f39fea17acdb0531e2bb3bd29bf74",
......   gas: 600000,
......   gasPrice: 0,
......   nonce: 1 })
{
  raw: "0xf8890180830927c094f18bd0f5a4f3944f3074453ce2015e8af12ed19680a40ebbbffc000000000000000000000000da80820ade1f39fea17acdb0531e2bb3bd29bf748526ec110ad8a04de5556bf0ef5711db740ed5f1752acf4aac3de94bfb22ed9c80760d9e9f89baa0433d5ae8a1d61d943d4126af0190862de24c413854c5f822b92a018d344c7cc9",
  tx: {
    gas: "0x927c0",
    gasPrice: "0x0",
    hash: "0x8ebc66631db6fb0c9e8a3ec43511eea0882b1d004e730295c479354276e50f69",
    input: "0x0ebbbffc000000000000000000000000da80820ade1f39fea17acdb0531e2bb3bd29bf74",
    nonce: "0x1",
    r: "0x4de5556bf0ef5711db740ed5f1752acf4aac3de94bfb22ed9c80760d9e9f89ba",
    s: "0x433d5ae8a1d61d943d4126af0190862de24c413854c5f822b92a018d344c7cc9",
    to: "0xf18bd0f5a4f3944f3074453ce2015e8af12ed196",
    v: "0x26ec110ad8",
    value: "0x0"
  }
}



